{"backend/contracts/IntentBasedFundControl.sol":{"FundFlowDemo":{"abi":[{"anonymous":false,"inputs":[{"indexed":false,"internalType":"uint256","name":"central","type":"uint256"},{"indexed":false,"internalType":"uint256","name":"scheme1","type":"uint256"},{"indexed":false,"internalType":"uint256","name":"scheme2","type":"uint256"},{"indexed":false,"internalType":"uint256","name":"ben1","type":"uint256"},{"indexed":false,"internalType":"uint256","name":"ben2","type":"uint256"},{"indexed":false,"internalType":"uint256","name":"ben3","type":"uint256"}],"name":"BalanceSnapshot","type":"event"},{"anonymous":false,"inputs":[{"indexed":false,"internalType":"string","name":"scheme","type":"string"},{"indexed":false,"internalType":"uint256","name":"amount","type":"uint256"}],"name":"CentralToScheme","type":"event"},{"anonymous":false,"inputs":[{"indexed":false,"internalType":"string","name":"scheme","type":"string"},{"indexed":false,"internalType":"string","name":"beneficiary","type":"string"},{"indexed":false,"internalType":"uint256","name":"amount","type":"uint256"}],"name":"SchemeToBeneficiary","type":"event"},{"inputs":[{"internalType":"string","name":"scheme","type":"string"},{"internalType":"string","name":"beneficiary","type":"string"},{"internalType":"uint256","name":"amount","type":"uint256"}],"name":"approveBeneficiaryFund","outputs":[],"stateMutability":"nonpayable","type":"function"},{"inputs":[{"internalType":"string","name":"scheme","type":"string"},{"internalType":"uint256","name":"amount","type":"uint256"}],"name":"approveSchemeFund","outputs":[],"stateMutability":"nonpayable","type":"function"},{"inputs":[],"name":"ben1Balance","outputs":[{"internalType":"uint256","name":"","type":"uint256"}],"stateMutability":"view","type":"function"},{"inputs":[],"name":"ben2Balance","outputs":[{"internalType":"uint256","name":"","type":"uint256"}],"stateMutability":"view","type":"function"},{"inputs":[],"name":"ben3Balance","outputs":[{"internalType":"uint256","name":"","type":"uint256"}],"stateMutability":"view","type":"function"},{"inputs":[],"name":"centralBalance","outputs":[{"internalType":"uint256","name":"","type":"uint256"}],"stateMutability":"view","type":"function"},{"inputs":[],"name":"getBalances","outputs":[{"internalType":"uint256","name":"","type":"uint256"},{"internalType":"uint256","name":"","type":"uint256"},{"internalType":"uint256","name":"","type":"uint256"},{"internalType":"uint256","name":"","type":"uint256"},{"internalType":"uint256","name":"","type":"uint256"},{"internalType":"uint256","name":"","type":"uint256"}],"stateMutability":"view","type":"function"},{"inputs":[],"name":"scheme1Balance","outputs":[{"internalType":"uint256","name":"","type":"uint256"}],"stateMutability":"view","type":"function"},{"inputs":[],"name":"scheme2Balance","outputs":[{"internalType":"uint256","name":"","type":"uint256"}],"stateMutability":"view","type":"function"}],"evm":{"bytecode":{"linkReferences":{},"object":"6080604052620186a0600055348015601657600080fd5b5061094d806100266000396000f3fe608060405234801561001057600080fd5b50600436106100925760003560e01c806375af1db81161006657806375af1db8146101105780637e98cd22146101195780639cb45f6114610122578063f5ba78ef14610135578063fe4ac2a61461013e57600080fd5b8062113e08146100975780632f1329a1146100db5780634d3d7f17146100f05780635b21cf7f14610107575b600080fd5b600054600154600254600354600454600554604080519687526020870195909552938501929092526060840152608083015260a082015260c0015b60405180910390f35b6100ee6100e9366004610779565b610147565b005b6100f960045481565b6040519081526020016100d2565b6100f960035481565b6100f960055481565b6100f960025481565b6100ee6101303660046107f2565b61053f565b6100f960015481565b6100f960005481565b6040805180820182526007815266736368656d653160c81b602090910152517f53906f18acb8c46550c5f132a718804439ff7fbae1ea434409a7772ae8890f2790610195908790879061083e565b604051809103902003610216578060015410156101f95760405162461bcd60e51b815260206004820152601b60248201527f536368656d65313a20696e73756666696369656e742066756e6473000000000060448201526064015b60405180910390fd5b806001600082825461020b9190610864565b9091555061030e9050565b604080518082018252600781526639b1b432b6b29960c91b602090910152517fadf23ee70a7b970c86634b281f5872e2cb62b0921a3c5dbcd7d415a80fcfb74b90610264908790879061083e565b6040518091039020036102d5578060025410156102c35760405162461bcd60e51b815260206004820152601b60248201527f536368656d65323a20696e73756666696369656e742066756e6473000000000060448201526064016101f0565b806002600082825461020b9190610864565b60405162461bcd60e51b815260206004820152600e60248201526d496e76616c696420736368656d6560901b60448201526064016101f0565b604080518082018252600481526362656e3160e01b602090910152517f55de67bb76a74685b0c117ea3a1b218f2c163bf6afb36dbb7f2242fca77f7c4390610359908590859061083e565b604051809103902003610383578060036000828254610378919061087d565b909155506104959050565b60408051808201825260048152633132b71960e11b602090910152517fd0934fb18de4de3322689370ae85e5f44f77b0b66de992b4816e6027c5c38895906103ce908590859061083e565b6040518091039020036103ed578060046000828254610378919061087d565b604080518082018252600481526362656e3360e01b602090910152517f7db10648c1d3650aa4baa4fb7dec6ad7d9dc5d932f2a637cbd186031e93a10cd90610438908590859061083e565b604051809103902003610457578060056000828254610378919061087d565b60405162461bcd60e51b8152602060048201526013602482015272496e76616c69642062656e656669636961727960681b60448201526064016101f0565b7fb56ee9015f13c7408c30d7053e10b3130e3abb58f79d6ba066189194e2dc1cf985858585856040516104cc9594939291906108b9565b60405180910390a1600054600154600254600354600454600554604080519687526020870195909552938501929092526060840152608083015260a08201527f1ce4eab4680010ce2ed3c1fce7abff2adb61ae885eadf8ad9695cee99f57c7759060c00160405180910390a15050505050565b8060005410156105915760405162461bcd60e51b815260206004820152601b60248201527f43656e7472616c3a20696e73756666696369656e742066756e6473000000000060448201526064016101f0565b806000808282546105a29190610864565b90915550506040805180820182526007815266736368656d653160c81b602090910152517f53906f18acb8c46550c5f132a718804439ff7fbae1ea434409a7772ae8890f27906105f5908590859061083e565b60405180910390200361061f578060016000828254610614919061087d565b9091555061068c9050565b604080518082018252600781526639b1b432b6b29960c91b602090910152517fadf23ee70a7b970c86634b281f5872e2cb62b0921a3c5dbcd7d415a80fcfb74b9061066d908590859061083e565b6040518091039020036102d5578060026000828254610614919061087d565b7fd2a6bc5e341f2d15cac87fdbe28600f476793f4d375a0dc9ef80db80e996c1508383836040516106bf939291906108f3565b60405180910390a1600054600154600254600354600454600554604080519687526020870195909552938501929092526060840152608083015260a08201527f1ce4eab4680010ce2ed3c1fce7abff2adb61ae885eadf8ad9695cee99f57c7759060c00160405180910390a1505050565b60008083601f84011261074257600080fd5b50813567ffffffffffffffff81111561075a57600080fd5b60208301915083602082850101111561077257600080fd5b9250929050565b60008060008060006060868803121561079157600080fd5b853567ffffffffffffffff8111156107a857600080fd5b6107b488828901610730565b909650945050602086013567ffffffffffffffff8111156107d457600080fd5b6107e088828901610730565b96999598509660400135949350505050565b60008060006040848603121561080757600080fd5b833567ffffffffffffffff81111561081e57600080fd5b61082a86828701610730565b909790965060209590950135949350505050565b8183823760009101908152919050565b634e487b7160e01b600052601160045260246000fd5b818103818111156108775761087761084e565b92915050565b808201808211156108775761087761084e565b81835281816020850137506000828201602090810191909152601f909101601f19169091010190565b6060815260006108cd606083018789610890565b82810360208401526108e0818688610890565b9150508260408301529695505050505050565b604081526000610907604083018587610890565b905082602083015294935050505056fea264697066735822122061ad83d77406009769ef102065ad8228d6d93ed7f943ceeefb481e4288de997364736f6c634300081c0033","opcodes":"PUSH1 0x80 PUSH1 0x40 MSTORE PUSH3 0x186A0 PUSH1 0x0 SSTORE CALLVALUE DUP1 ISZERO PUSH1 0x16 JUMPI PUSH1 0x0 DUP1 REVERT JUMPDEST POP PUSH2 0x94D DUP1 PUSH2 0x26 PUSH1 0x0 CODECOPY PUSH1 0x0 RETURN INVALID PUSH1 0x80 PUSH1 0x40 MSTORE CALLVALUE DUP1 ISZERO PUSH2 0x10 JUMPI PUSH1 0x0 DUP1 REVERT JUMPDEST POP PUSH1 0x4 CALLDATASIZE LT PUSH2 0x92 JUMPI PUSH1 0x0 CALLDATALOAD PUSH1 0xE0 SHR DUP1 PUSH4 0x75AF1DB8 GT PUSH2 0x66 JUMPI DUP1 PUSH4 0x75AF1DB8 EQ PUSH2 0x110 JUMPI DUP1 PUSH4 0x7E98CD22 EQ PUSH2 0x119 JUMPI DUP1 PUSH4 0x9CB45F61 EQ PUSH2 0x122 JUMPI DUP1 PUSH4 0xF5BA78EF EQ PUSH2 0x135 JUMPI DUP1 PUSH4 0xFE4AC2A6 EQ PUSH2 0x13E JUMPI PUSH1 0x0 DUP1 REVERT JUMPDEST DUP1 PUSH3 0x113E08 EQ PUSH2 0x97 JUMPI DUP1 PUSH4 0x2F1329A1 EQ PUSH2 0xDB JUMPI DUP1 PUSH4 0x4D3D7F17 EQ PUSH2 0xF0 JUMPI DUP1 PUSH4 0x5B21CF7F EQ PUSH2 0x107 JUMPI JUMPDEST PUSH1 0x0 DUP1 REVERT JUMPDEST PUSH1 0x0 SLOAD PUSH1 0x1 SLOAD PUSH1 0x2 SLOAD PUSH1 0x3 SLOAD PUSH1 0x4 SLOAD PUSH1 0x5 SLOAD PUSH1 0x40 DUP1 MLOAD SWAP7 DUP8 MSTORE PUSH1 0x20 DUP8 ADD SWAP6 SWAP1 SWAP6 MSTORE SWAP4 DUP6 ADD SWAP3 SWAP1 SWAP3 MSTORE PUSH1 0x60 DUP5 ADD MSTORE PUSH1 0x80 DUP4 ADD MSTORE PUSH1 0xA0 DUP3 ADD MSTORE PUSH1 0xC0 ADD JUMPDEST PUSH1 0x40 MLOAD DUP1 SWAP2 SUB SWAP1 RETURN JUMPDEST PUSH2 0xEE PUSH2 0xE9 CALLDATASIZE PUSH1 0x4 PUSH2 0x779 JUMP JUMPDEST PUSH2 0x147 JUMP JUMPDEST STOP JUMPDEST PUSH2 0xF9 PUSH1 0x4 SLOAD DUP2 JUMP JUMPDEST PUSH1 0x40 MLOAD SWAP1 DUP2 MSTORE PUSH1 0x20 ADD PUSH2 0xD2 JUMP JUMPDEST PUSH2 0xF9 PUSH1 0x3 SLOAD DUP2 JUMP JUMPDEST PUSH2 0xF9 PUSH1 0x5 SLOAD DUP2 JUMP JUMPDEST PUSH2 0xF9 PUSH1 0x2 SLOAD DUP2 JUMP JUMPDEST PUSH2 0xEE PUSH2 0x130 CALLDATASIZE PUSH1 0x4 PUSH2 0x7F2 JUMP JUMPDEST PUSH2 0x53F JUMP JUMPDEST PUSH2 0xF9 PUSH1 0x1 SLOAD DUP2 JUMP JUMPDEST PUSH2 0xF9 PUSH1 0x0 SLOAD DUP2 JUMP JUMPDEST PUSH1 0x40 DUP1 MLOAD DUP1 DUP3 ADD DUP3 MSTORE PUSH1 0x7 DUP2 MSTORE PUSH7 0x736368656D6531 PUSH1 0xC8 SHL PUSH1 0x20 SWAP1 SWAP2 ADD MSTORE MLOAD PUSH32 0x53906F18ACB8C46550C5F132A718804439FF7FBAE1EA434409A7772AE8890F27 SWAP1 PUSH2 0x195 SWAP1 DUP8 SWAP1 DUP8 SWAP1 PUSH2 0x83E JUMP JUMPDEST PUSH1 0x40 MLOAD DUP1 SWAP2 SUB SWAP1 KECCAK256 SUB PUSH2 0x216 JUMPI DUP1 PUSH1 0x1 SLOAD LT ISZERO PUSH2 0x1F9 JUMPI PUSH1 0x40 MLOAD PUSH3 0x461BCD PUSH1 0xE5 SHL DUP2 MSTORE PUSH1 0x20 PUSH1 0x4 DUP3 ADD MSTORE PUSH1 0x1B PUSH1 0x24 DUP3 ADD MSTORE PUSH32 0x536368656D65313A20696E73756666696369656E742066756E64730000000000 PUSH1 0x44 DUP3 ADD MSTORE PUSH1 0x64 ADD JUMPDEST PUSH1 0x40 MLOAD DUP1 SWAP2 SUB SWAP1 REVERT JUMPDEST DUP1 PUSH1 0x1 PUSH1 0x0 DUP3 DUP3 SLOAD PUSH2 0x20B SWAP2 SWAP1 PUSH2 0x864 JUMP JUMPDEST SWAP1 SWAP2 SSTORE POP PUSH2 0x30E SWAP1 POP JUMP JUMPDEST PUSH1 0x40 DUP1 MLOAD DUP1 DUP3 ADD DUP3 MSTORE PUSH1 0x7 DUP2 MSTORE PUSH7 0x39B1B432B6B299 PUSH1 0xC9 SHL PUSH1 0x20 SWAP1 SWAP2 ADD MSTORE MLOAD PUSH32 0xADF23EE70A7B970C86634B281F5872E2CB62B0921A3C5DBCD7D415A80FCFB74B SWAP1 PUSH2 0x264 SWAP1 DUP8 SWAP1 DUP8 SWAP1 PUSH2 0x83E JUMP JUMPDEST PUSH1 0x40 MLOAD DUP1 SWAP2 SUB SWAP1 KECCAK256 SUB PUSH2 0x2D5 JUMPI DUP1 PUSH1 0x2 SLOAD LT ISZERO PUSH2 0x2C3 JUMPI PUSH1 0x40 MLOAD PUSH3 0x461BCD PUSH1 0xE5 SHL DUP2 MSTORE PUSH1 0x20 PUSH1 0x4 DUP3 ADD MSTORE PUSH1 0x1B PUSH1 0x24 DUP3 ADD MSTORE PUSH32 0x536368656D65323A20696E73756666696369656E742066756E64730000000000 PUSH1 0x44 DUP3 ADD MSTORE PUSH1 0x64 ADD PUSH2 0x1F0 JUMP JUMPDEST DUP1 PUSH1 0x2 PUSH1 0x0 DUP3 DUP3 SLOAD PUSH2 0x20B SWAP2 SWAP1 PUSH2 0x864 JUMP JUMPDEST PUSH1 0x40 MLOAD PUSH3 0x461BCD PUSH1 0xE5 SHL DUP2 MSTORE PUSH1 0x20 PUSH1 0x4 DUP3 ADD MSTORE PUSH1 0xE PUSH1 0x24 DUP3 ADD MSTORE PUSH14 0x496E76616C696420736368656D65 PUSH1 0x90 SHL PUSH1 0x44 DUP3 ADD MSTORE PUSH1 0x64 ADD PUSH2 0x1F0 JUMP JUMPDEST PUSH1 0x40 DUP1 MLOAD DUP1 DUP3 ADD DUP3 MSTORE PUSH1 0x4 DUP2 MSTORE PUSH4 0x62656E31 PUSH1 0xE0 SHL PUSH1 0x20 SWAP1 SWAP2 ADD MSTORE MLOAD PUSH32 0x55DE67BB76A74685B0C117EA3A1B218F2C163BF6AFB36DBB7F2242FCA77F7C43 SWAP1 PUSH2 0x359 SWAP1 DUP6 SWAP1 DUP6 SWAP1 PUSH2 0x83E JUMP JUMPDEST PUSH1 0x40 MLOAD DUP1 SWAP2 SUB SWAP1 KECCAK256 SUB PUSH2 0x383 JUMPI DUP1 PUSH1 0x3 PUSH1 0x0 DUP3 DUP3 SLOAD PUSH2 0x378 SWAP2 SWAP1 PUSH2 0x87D JUMP JUMPDEST SWAP1 SWAP2 SSTORE POP PUSH2 0x495 SWAP1 POP JUMP JUMPDEST PUSH1 0x40 DUP1 MLOAD DUP1 DUP3 ADD DUP3 MSTORE PUSH1 0x4 DUP2 MSTORE PUSH4 0x3132B719 PUSH1 0xE1 SHL PUSH1 0x20 SWAP1 SWAP2 ADD MSTORE MLOAD PUSH32 0xD0934FB18DE4DE3322689370AE85E5F44F77B0B66DE992B4816E6027C5C38895 SWAP1 PUSH2 0x3CE SWAP1 DUP6 SWAP1 DUP6 SWAP1 PUSH2 0x83E JUMP JUMPDEST PUSH1 0x40 MLOAD DUP1 SWAP2 SUB SWAP1 KECCAK256 SUB PUSH2 0x3ED JUMPI DUP1 PUSH1 0x4 PUSH1 0x0 DUP3 DUP3 SLOAD PUSH2 0x378 SWAP2 SWAP1 PUSH2 0x87D JUMP JUMPDEST PUSH1 0x40 DUP1 MLOAD DUP1 DUP3 ADD DUP3 MSTORE PUSH1 0x4 DUP2 MSTORE PUSH4 0x62656E33 PUSH1 0xE0 SHL PUSH1 0x20 SWAP1 SWAP2 ADD MSTORE MLOAD PUSH32 0x7DB10648C1D3650AA4BAA4FB7DEC6AD7D9DC5D932F2A637CBD186031E93A10CD SWAP1 PUSH2 0x438 SWAP1 DUP6 SWAP1 DUP6 SWAP1 PUSH2 0x83E JUMP JUMPDEST PUSH1 0x40 MLOAD DUP1 SWAP2 SUB SWAP1 KECCAK256 SUB PUSH2 0x457 JUMPI DUP1 PUSH1 0x5 PUSH1 0x0 DUP3 DUP3 SLOAD PUSH2 0x378 SWAP2 SWAP1 PUSH2 0x87D JUMP JUMPDEST PUSH1 0x40 MLOAD PUSH3 0x461BCD PUSH1 0xE5 SHL DUP2 MSTORE PUSH1 0x20 PUSH1 0x4 DUP3 ADD MSTORE PUSH1 0x13 PUSH1 0x24 DUP3 ADD MSTORE PUSH19 0x496E76616C69642062656E6566696369617279 PUSH1 0x68 SHL PUSH1 0x44 DUP3 ADD MSTORE PUSH1 0x64 ADD PUSH2 0x1F0 JUMP JUMPDEST PUSH32 0xB56EE9015F13C7408C30D7053E10B3130E3ABB58F79D6BA066189194E2DC1CF9 DUP6 DUP6 DUP6 DUP6 DUP6 PUSH1 0x40 MLOAD PUSH2 0x4CC SWAP6 SWAP5 SWAP4 SWAP3 SWAP2 SWAP1 PUSH2 0x8B9 JUMP JUMPDEST PUSH1 0x40 MLOAD DUP1 SWAP2 SUB SWAP1 LOG1 PUSH1 0x0 SLOAD PUSH1 0x1 SLOAD PUSH1 0x2 SLOAD PUSH1 0x3 SLOAD PUSH1 0x4 SLOAD PUSH1 0x5 SLOAD PUSH1 0x40 DUP1 MLOAD SWAP7 DUP8 MSTORE PUSH1 0x20 DUP8 ADD SWAP6 SWAP1 SWAP6 MSTORE SWAP4 DUP6 ADD SWAP3 SWAP1 SWAP3 MSTORE PUSH1 0x60 DUP5 ADD MSTORE PUSH1 0x80 DUP4 ADD MSTORE PUSH1 0xA0 DUP3 ADD MSTORE PUSH32 0x1CE4EAB4680010CE2ED3C1FCE7ABFF2ADB61AE885EADF8AD9695CEE99F57C775 SWAP1 PUSH1 0xC0 ADD PUSH1 0x40 MLOAD DUP1 SWAP2 SUB SWAP1 LOG1 POP POP POP POP POP JUMP JUMPDEST DUP1 PUSH1 0x0 SLOAD LT ISZERO PUSH2 0x591 JUMPI PUSH1 0x40 MLOAD PUSH3 0x461BCD PUSH1 0xE5 SHL DUP2 MSTORE PUSH1 0x20 PUSH1 0x4 DUP3 ADD MSTORE PUSH1 0x1B PUSH1 0x24 DUP3 ADD MSTORE PUSH32 0x43656E7472616C3A20696E73756666696369656E742066756E64730000000000 PUSH1 0x44 DUP3 ADD MSTORE PUSH1 0x64 ADD PUSH2 0x1F0 JUMP JUMPDEST DUP1 PUSH1 0x0 DUP1 DUP3 DUP3 SLOAD PUSH2 0x5A2 SWAP2 SWAP1 PUSH2 0x864 JUMP JUMPDEST SWAP1 SWAP2 SSTORE POP POP PUSH1 0x40 DUP1 MLOAD DUP1 DUP3 ADD DUP3 MSTORE PUSH1 0x7 DUP2 MSTORE PUSH7 0x736368656D6531 PUSH1 0xC8 SHL PUSH1 0x20 SWAP1 SWAP2 ADD MSTORE MLOAD PUSH32 0x53906F18ACB8C46550C5F132A718804439FF7FBAE1EA434409A7772AE8890F27 SWAP1 PUSH2 0x5F5 SWAP1 DUP6 SWAP1 DUP6 SWAP1 PUSH2 0x83E JUMP JUMPDEST PUSH1 0x40 MLOAD DUP1 SWAP2 SUB SWAP1 KECCAK256 SUB PUSH2 0x61F JUMPI DUP1 PUSH1 0x1 PUSH1 0x0 DUP3 DUP3 SLOAD PUSH2 0x614 SWAP2 SWAP1 PUSH2 0x87D JUMP JUMPDEST SWAP1 SWAP2 SSTORE POP PUSH2 0x68C SWAP1 POP JUMP JUMPDEST PUSH1 0x40 DUP1 MLOAD DUP1 DUP3 ADD DUP3 MSTORE PUSH1 0x7 DUP2 MSTORE PUSH7 0x39B1B432B6B299 PUSH1 0xC9 SHL PUSH1 0x20 SWAP1 SWAP2 ADD MSTORE MLOAD PUSH32 0xADF23EE70A7B970C86634B281F5872E2CB62B0921A3C5DBCD7D415A80FCFB74B SWAP1 PUSH2 0x66D SWAP1 DUP6 SWAP1 DUP6 SWAP1 PUSH2 0x83E JUMP JUMPDEST PUSH1 0x40 MLOAD DUP1 SWAP2 SUB SWAP1 KECCAK256 SUB PUSH2 0x2D5 JUMPI DUP1 PUSH1 0x2 PUSH1 0x0 DUP3 DUP3 SLOAD PUSH2 0x614 SWAP2 SWAP1 PUSH2 0x87D JUMP JUMPDEST PUSH32 0xD2A6BC5E341F2D15CAC87FDBE28600F476793F4D375A0DC9EF80DB80E996C150 DUP4 DUP4 DUP4 PUSH1 0x40 MLOAD PUSH2 0x6BF SWAP4 SWAP3 SWAP2 SWAP1 PUSH2 0x8F3 JUMP JUMPDEST PUSH1 0x40 MLOAD DUP1 SWAP2 SUB SWAP1 LOG1 PUSH1 0x0 SLOAD PUSH1 0x1 SLOAD PUSH1 0x2 SLOAD PUSH1 0x3 SLOAD PUSH1 0x4 SLOAD PUSH1 0x5 SLOAD PUSH1 0x40 DUP1 MLOAD SWAP7 DUP8 MSTORE PUSH1 0x20 DUP8 ADD SWAP6 SWAP1 SWAP6 MSTORE SWAP4 DUP6 ADD SWAP3 SWAP1 SWAP3 MSTORE PUSH1 0x60 DUP5 ADD MSTORE PUSH1 0x80 DUP4 ADD MSTORE PUSH1 0xA0 DUP3 ADD MSTORE PUSH32 0x1CE4EAB4680010CE2ED3C1FCE7ABFF2ADB61AE885EADF8AD9695CEE99F57C775 SWAP1 PUSH1 0xC0 ADD PUSH1 0x40 MLOAD DUP1 SWAP2 SUB SWAP1 LOG1 POP POP POP JUMP JUMPDEST PUSH1 0x0 DUP1 DUP4 PUSH1 0x1F DUP5 ADD SLT PUSH2 0x742 JUMPI PUSH1 0x0 DUP1 REVERT JUMPDEST POP DUP2 CALLDATALOAD PUSH8 0xFFFFFFFFFFFFFFFF DUP2 GT ISZERO PUSH2 0x75A JUMPI PUSH1 0x0 DUP1 REVERT JUMPDEST PUSH1 0x20 DUP4 ADD SWAP2 POP DUP4 PUSH1 0x20 DUP3 DUP6 ADD ADD GT ISZERO PUSH2 0x772 JUMPI PUSH1 0x0 DUP1 REVERT JUMPDEST SWAP3 POP SWAP3 SWAP1 POP JUMP JUMPDEST PUSH1 0x0 DUP1 PUSH1 0x0 DUP1 PUSH1 0x0 PUSH1 0x60 DUP7 DUP9 SUB SLT ISZERO PUSH2 0x791 JUMPI PUSH1 0x0 DUP1 REVERT JUMPDEST DUP6 CALLDATALOAD PUSH8 0xFFFFFFFFFFFFFFFF DUP2 GT ISZERO PUSH2 0x7A8 JUMPI PUSH1 0x0 DUP1 REVERT JUMPDEST PUSH2 0x7B4 DUP9 DUP3 DUP10 ADD PUSH2 0x730 JUMP JUMPDEST SWAP1 SWAP7 POP SWAP5 POP POP PUSH1 0x20 DUP7 ADD CALLDATALOAD PUSH8 0xFFFFFFFFFFFFFFFF DUP2 GT ISZERO PUSH2 0x7D4 JUMPI PUSH1 0x0 DUP1 REVERT JUMPDEST PUSH2 0x7E0 DUP9 DUP3 DUP10 ADD PUSH2 0x730 JUMP JUMPDEST SWAP7 SWAP10 SWAP6 SWAP9 POP SWAP7 PUSH1 0x40 ADD CALLDATALOAD SWAP5 SWAP4 POP POP POP POP JUMP JUMPDEST PUSH1 0x0 DUP1 PUSH1 0x0 PUSH1 0x40 DUP5 DUP7 SUB SLT ISZERO PUSH2 0x807 JUMPI PUSH1 0x0 DUP1 REVERT JUMPDEST DUP4 CALLDATALOAD PUSH8 0xFFFFFFFFFFFFFFFF DUP2 GT ISZERO PUSH2 0x81E JUMPI PUSH1 0x0 DUP1 REVERT JUMPDEST PUSH2 0x82A DUP7 DUP3 DUP8 ADD PUSH2 0x730 JUMP JUMPDEST SWAP1 SWAP8 SWAP1 SWAP7 POP PUSH1 0x20 SWAP6 SWAP1 SWAP6 ADD CALLDATALOAD SWAP5 SWAP4 POP POP POP POP JUMP JUMPDEST DUP2 DUP4 DUP3 CALLDATACOPY PUSH1 0x0 SWAP2 ADD SWAP1 DUP2 MSTORE SWAP2 SWAP1 POP JUMP JUMPDEST PUSH4 0x4E487B71 PUSH1 0xE0 SHL PUSH1 0x0 MSTORE PUSH1 0x11 PUSH1 0x4 MSTORE PUSH1 0x24 PUSH1 0x0 REVERT JUMPDEST DUP2 DUP2 SUB DUP2 DUP2 GT ISZERO PUSH2 0x877 JUMPI PUSH2 0x877 PUSH2 0x84E JUMP JUMPDEST SWAP3 SWAP2 POP POP JUMP JUMPDEST DUP1 DUP3 ADD DUP1 DUP3 GT ISZERO PUSH2 0x877 JUMPI PUSH2 0x877 PUSH2 0x84E JUMP JUMPDEST DUP2 DUP4 MSTORE DUP2 DUP2 PUSH1 0x20 DUP6 ADD CALLDATACOPY POP PUSH1 0x0 DUP3 DUP3 ADD PUSH1 0x20 SWAP1 DUP2 ADD SWAP2 SWAP1 SWAP2 MSTORE PUSH1 0x1F SWAP1 SWAP2 ADD PUSH1 0x1F NOT AND SWAP1 SWAP2 ADD ADD SWAP1 JUMP JUMPDEST PUSH1 0x60 DUP2 MSTORE PUSH1 0x0 PUSH2 0x8CD PUSH1 0x60 DUP4 ADD DUP8 DUP10 PUSH2 0x890 JUMP JUMPDEST DUP3 DUP2 SUB PUSH1 0x20 DUP5 ADD MSTORE PUSH2 0x8E0 DUP2 DUP7 DUP9 PUSH2 0x890 JUMP JUMPDEST SWAP2 POP POP DUP3 PUSH1 0x40 DUP4 ADD MSTORE SWAP7 SWAP6 POP POP POP POP POP POP JUMP JUMPDEST PUSH1 0x40 DUP2 MSTORE PUSH1 0x0 PUSH2 0x907 PUSH1 0x40 DUP4 ADD DUP6 DUP8 PUSH2 0x890 JUMP JUMPDEST SWAP1 POP DUP3 PUSH1 0x20 DUP4 ADD MSTORE SWAP5 SWAP4 POP POP POP POP JUMP INVALID LOG2 PUSH5 0x6970667358 0x22 SLT KECCAK256 PUSH2 0xAD83 0xD7 PUSH21 0x6009769EF102065AD8228D6D93ED7F943CEEEFB48 0x1E TIMESTAMP DUP9 0xDE SWAP10 PUSH20 0x64736F6C634300081C0033000000000000000000 "},"methodIdentifiers":{"approveBeneficiaryFund(string,string,uint256)":"2f1329a1","approveSchemeFund(string,uint256)":"9cb45f61","ben1Balance()":"5b21cf7f","ben2Balance()":"4d3d7f17","ben3Balance()":"75af1db8","centralBalance()":"fe4ac2a6","getBalances()":"00113e08","scheme1Balance()":"f5ba78ef","scheme2Balance()":"7e98cd22"}}}}}