{
  "_format": "hh-sol-artifact-1",
  "contractName": "FundFlowDemo",
  "sourceName": "backend/contracts/IntentBasedFundControl.sol",
  "abi": [
    {
      "anonymous": false,
      "inputs": [
        {
          "indexed": false,
          "internalType": "string",
          "name": "scheme",
          "type": "string"
        },
        {
          "indexed": false,
          "internalType": "uint256",
          "name": "amount",
          "type": "uint256"
        }
      ],
      "name": "CentralToScheme",
      "type": "event"
    },
    {
      "anonymous": false,
      "inputs": [
        {
          "indexed": false,
          "internalType": "string",
          "name": "scheme",
          "type": "string"
        },
        {
          "indexed": false,
          "internalType": "string",
          "name": "beneficiary",
          "type": "string"
        },
        {
          "indexed": false,
          "internalType": "uint256",
          "name": "amount",
          "type": "uint256"
        }
      ],
      "name": "SchemeToBeneficiary",
      "type": "event"
    },
    {
      "inputs": [
        {
          "internalType": "string",
          "name": "scheme",
          "type": "string"
        },
        {
          "internalType": "string",
          "name": "beneficiary",
          "type": "string"
        },
        {
          "internalType": "uint256",
          "name": "amount",
          "type": "uint256"
        }
      ],
      "name": "approveBeneficiaryFund",
      "outputs": [],
      "stateMutability": "nonpayable",
      "type": "function"
    },
    {
      "inputs": [
        {
          "internalType": "string",
          "name": "scheme",
          "type": "string"
        },
        {
          "internalType": "uint256",
          "name": "amount",
          "type": "uint256"
        }
      ],
      "name": "approveSchemeFund",
      "outputs": [],
      "stateMutability": "nonpayable",
      "type": "function"
    },
    {
      "inputs": [],
      "name": "ben1Balance",
      "outputs": [
        {
          "internalType": "uint256",
          "name": "",
          "type": "uint256"
        }
      ],
      "stateMutability": "view",
      "type": "function"
    },
    {
      "inputs": [],
      "name": "ben2Balance",
      "outputs": [
        {
          "internalType": "uint256",
          "name": "",
          "type": "uint256"
        }
      ],
      "stateMutability": "view",
      "type": "function"
    },
    {
      "inputs": [],
      "name": "ben3Balance",
      "outputs": [
        {
          "internalType": "uint256",
          "name": "",
          "type": "uint256"
        }
      ],
      "stateMutability": "view",
      "type": "function"
    },
    {
      "inputs": [],
      "name": "centralBalance",
      "outputs": [
        {
          "internalType": "uint256",
          "name": "",
          "type": "uint256"
        }
      ],
      "stateMutability": "view",
      "type": "function"
    },
    {
      "inputs": [],
      "name": "getBalances",
      "outputs": [
        {
          "internalType": "uint256",
          "name": "",
          "type": "uint256"
        },
        {
          "internalType": "uint256",
          "name": "",
          "type": "uint256"
        },
        {
          "internalType": "uint256",
          "name": "",
          "type": "uint256"
        },
        {
          "internalType": "uint256",
          "name": "",
          "type": "uint256"
        },
        {
          "internalType": "uint256",
          "name": "",
          "type": "uint256"
        },
        {
          "internalType": "uint256",
          "name": "",
          "type": "uint256"
        }
      ],
      "stateMutability": "view",
      "type": "function"
    },
    {
      "inputs": [],
      "name": "scheme1Balance",
      "outputs": [
        {
          "internalType": "uint256",
          "name": "",
          "type": "uint256"
        }
      ],
      "stateMutability": "view",
      "type": "function"
    },
    {
      "inputs": [],
      "name": "scheme2Balance",
      "outputs": [
        {
          "internalType": "uint256",
          "name": "",
          "type": "uint256"
        }
      ],
      "stateMutability": "view",
      "type": "function"
    }
  ],
  "bytecode": "0x6080604052620186a0600055348015601657600080fd5b50610885806100266000396000f3fe608060405234801561001057600080fd5b50600436106100925760003560e01c806375af1db81161006657806375af1db8146101105780637e98cd22146101195780639cb45f6114610122578063f5ba78ef14610135578063fe4ac2a61461013e57600080fd5b8062113e08146100975780632f1329a1146100db5780634d3d7f17146100f05780635b21cf7f14610107575b600080fd5b600054600154600254600354600454600554604080519687526020870195909552938501929092526060840152608083015260a082015260c0015b60405180910390f35b6100ee6100e93660046106b1565b610147565b005b6100f960045481565b6040519081526020016100d2565b6100f960035481565b6100f960055481565b6100f960025481565b6100ee61013036600461072a565b6104db565b6100f960015481565b6100f960005481565b6040805180820182526007815266736368656d653160c81b602090910152517f53906f18acb8c46550c5f132a718804439ff7fbae1ea434409a7772ae8890f27906101959087908790610776565b604051809103902003610216578060015410156101f95760405162461bcd60e51b815260206004820152601b60248201527f536368656d65313a20696e73756666696369656e742066756e6473000000000060448201526064015b60405180910390fd5b806001600082825461020b919061079c565b9091555061030e9050565b604080518082018252600781526639b1b432b6b29960c91b602090910152517fadf23ee70a7b970c86634b281f5872e2cb62b0921a3c5dbcd7d415a80fcfb74b906102649087908790610776565b6040518091039020036102d5578060025410156102c35760405162461bcd60e51b815260206004820152601b60248201527f536368656d65323a20696e73756666696369656e742066756e6473000000000060448201526064016101f0565b806002600082825461020b919061079c565b60405162461bcd60e51b815260206004820152600e60248201526d496e76616c696420736368656d6560901b60448201526064016101f0565b604080518082018252600481526362656e3160e01b602090910152517f55de67bb76a74685b0c117ea3a1b218f2c163bf6afb36dbb7f2242fca77f7c43906103599085908590610776565b60405180910390200361038357806003600082825461037891906107b5565b909155506104959050565b60408051808201825260048152633132b71960e11b602090910152517fd0934fb18de4de3322689370ae85e5f44f77b0b66de992b4816e6027c5c38895906103ce9085908590610776565b6040518091039020036103ed57806004600082825461037891906107b5565b604080518082018252600481526362656e3360e01b602090910152517f7db10648c1d3650aa4baa4fb7dec6ad7d9dc5d932f2a637cbd186031e93a10cd906104389085908590610776565b60405180910390200361045757806005600082825461037891906107b5565b60405162461bcd60e51b8152602060048201526013602482015272496e76616c69642062656e656669636961727960681b60448201526064016101f0565b7fb56ee9015f13c7408c30d7053e10b3130e3abb58f79d6ba066189194e2dc1cf985858585856040516104cc9594939291906107f1565b60405180910390a15050505050565b80600054101561052d5760405162461bcd60e51b815260206004820152601b60248201527f43656e7472616c3a20696e73756666696369656e742066756e6473000000000060448201526064016101f0565b8060008082825461053e919061079c565b90915550506040805180820182526007815266736368656d653160c81b602090910152517f53906f18acb8c46550c5f132a718804439ff7fbae1ea434409a7772ae8890f27906105919085908590610776565b6040518091039020036105bb5780600160008282546105b091906107b5565b909155506106289050565b604080518082018252600781526639b1b432b6b29960c91b602090910152517fadf23ee70a7b970c86634b281f5872e2cb62b0921a3c5dbcd7d415a80fcfb74b906106099085908590610776565b6040518091039020036102d55780600260008282546105b091906107b5565b7fd2a6bc5e341f2d15cac87fdbe28600f476793f4d375a0dc9ef80db80e996c15083838360405161065b9392919061082b565b60405180910390a1505050565b60008083601f84011261067a57600080fd5b50813567ffffffffffffffff81111561069257600080fd5b6020830191508360208285010111156106aa57600080fd5b9250929050565b6000806000806000606086880312156106c957600080fd5b853567ffffffffffffffff8111156106e057600080fd5b6106ec88828901610668565b909650945050602086013567ffffffffffffffff81111561070c57600080fd5b61071888828901610668565b96999598509660400135949350505050565b60008060006040848603121561073f57600080fd5b833567ffffffffffffffff81111561075657600080fd5b61076286828701610668565b909790965060209590950135949350505050565b8183823760009101908152919050565b634e487b7160e01b600052601160045260246000fd5b818103818111156107af576107af610786565b92915050565b808201808211156107af576107af610786565b81835281816020850137506000828201602090810191909152601f909101601f19169091010190565b6060815260006108056060830187896107c8565b82810360208401526108188186886107c8565b9150508260408301529695505050505050565b60408152600061083f6040830185876107c8565b905082602083015294935050505056fea264697066735822122026c1a4c0a5221066d9648798d8a6b888a9106727236622b59ec9fee85571336b64736f6c634300081c0033",
  "linkReferences": {},
  "deployedLinkReferences": {}
}