{
  "_format": "hh-sol-artifact-1",
  "contractName": "FundFlowDemo",
  "sourceName": "backend/contracts/IntentBasedFundControl.sol",
  "abi": [
    {
      "anonymous": false,
      "inputs": [
        {
          "indexed": false,
          "internalType": "uint256",
          "name": "central",
          "type": "uint256"
        },
        {
          "indexed": false,
          "internalType": "uint256",
          "name": "scheme1",
          "type": "uint256"
        },
        {
          "indexed": false,
          "internalType": "uint256",
          "name": "scheme2",
          "type": "uint256"
        },
        {
          "indexed": false,
          "internalType": "uint256",
          "name": "ben1",
          "type": "uint256"
        },
        {
          "indexed": false,
          "internalType": "uint256",
          "name": "ben2",
          "type": "uint256"
        },
        {
          "indexed": false,
          "internalType": "uint256",
          "name": "ben3",
          "type": "uint256"
        }
      ],
      "name": "BalanceSnapshot",
      "type": "event"
    },
    {
      "anonymous": false,
      "inputs": [
        {
          "indexed": false,
          "internalType": "string",
          "name": "scheme",
          "type": "string"
        },
        {
          "indexed": false,
          "internalType": "uint256",
          "name": "amount",
          "type": "uint256"
        }
      ],
      "name": "CentralToScheme",
      "type": "event"
    },
    {
      "anonymous": false,
      "inputs": [
        {
          "indexed": false,
          "internalType": "string",
          "name": "scheme",
          "type": "string"
        },
        {
          "indexed": false,
          "internalType": "string",
          "name": "beneficiary",
          "type": "string"
        },
        {
          "indexed": false,
          "internalType": "uint256",
          "name": "amount",
          "type": "uint256"
        }
      ],
      "name": "SchemeToBeneficiary",
      "type": "event"
    },
    {
      "inputs": [
        {
          "internalType": "string",
          "name": "scheme",
          "type": "string"
        },
        {
          "internalType": "string",
          "name": "beneficiary",
          "type": "string"
        },
        {
          "internalType": "uint256",
          "name": "amount",
          "type": "uint256"
        }
      ],
      "name": "approveBeneficiaryFund",
      "outputs": [],
      "stateMutability": "nonpayable",
      "type": "function"
    },
    {
      "inputs": [
        {
          "internalType": "string",
          "name": "scheme",
          "type": "string"
        },
        {
          "internalType": "uint256",
          "name": "amount",
          "type": "uint256"
        }
      ],
      "name": "approveSchemeFund",
      "outputs": [],
      "stateMutability": "nonpayable",
      "type": "function"
    },
    {
      "inputs": [],
      "name": "ben1Balance",
      "outputs": [
        {
          "internalType": "uint256",
          "name": "",
          "type": "uint256"
        }
      ],
      "stateMutability": "view",
      "type": "function"
    },
    {
      "inputs": [],
      "name": "ben2Balance",
      "outputs": [
        {
          "internalType": "uint256",
          "name": "",
          "type": "uint256"
        }
      ],
      "stateMutability": "view",
      "type": "function"
    },
    {
      "inputs": [],
      "name": "ben3Balance",
      "outputs": [
        {
          "internalType": "uint256",
          "name": "",
          "type": "uint256"
        }
      ],
      "stateMutability": "view",
      "type": "function"
    },
    {
      "inputs": [],
      "name": "centralBalance",
      "outputs": [
        {
          "internalType": "uint256",
          "name": "",
          "type": "uint256"
        }
      ],
      "stateMutability": "view",
      "type": "function"
    },
    {
      "inputs": [],
      "name": "getBalances",
      "outputs": [
        {
          "internalType": "uint256",
          "name": "",
          "type": "uint256"
        },
        {
          "internalType": "uint256",
          "name": "",
          "type": "uint256"
        },
        {
          "internalType": "uint256",
          "name": "",
          "type": "uint256"
        },
        {
          "internalType": "uint256",
          "name": "",
          "type": "uint256"
        },
        {
          "internalType": "uint256",
          "name": "",
          "type": "uint256"
        },
        {
          "internalType": "uint256",
          "name": "",
          "type": "uint256"
        }
      ],
      "stateMutability": "view",
      "type": "function"
    },
    {
      "inputs": [],
      "name": "scheme1Balance",
      "outputs": [
        {
          "internalType": "uint256",
          "name": "",
          "type": "uint256"
        }
      ],
      "stateMutability": "view",
      "type": "function"
    },
    {
      "inputs": [],
      "name": "scheme2Balance",
      "outputs": [
        {
          "internalType": "uint256",
          "name": "",
          "type": "uint256"
        }
      ],
      "stateMutability": "view",
      "type": "function"
    }
  ],
  "bytecode": "0x6080604052620186a0600055348015601657600080fd5b5061094d806100266000396000f3fe608060405234801561001057600080fd5b50600436106100925760003560e01c806375af1db81161006657806375af1db8146101105780637e98cd22146101195780639cb45f6114610122578063f5ba78ef14610135578063fe4ac2a61461013e57600080fd5b8062113e08146100975780632f1329a1146100db5780634d3d7f17146100f05780635b21cf7f14610107575b600080fd5b600054600154600254600354600454600554604080519687526020870195909552938501929092526060840152608083015260a082015260c0015b60405180910390f35b6100ee6100e9366004610779565b610147565b005b6100f960045481565b6040519081526020016100d2565b6100f960035481565b6100f960055481565b6100f960025481565b6100ee6101303660046107f2565b61053f565b6100f960015481565b6100f960005481565b6040805180820182526007815266736368656d653160c81b602090910152517f53906f18acb8c46550c5f132a718804439ff7fbae1ea434409a7772ae8890f2790610195908790879061083e565b604051809103902003610216578060015410156101f95760405162461bcd60e51b815260206004820152601b60248201527f536368656d65313a20696e73756666696369656e742066756e6473000000000060448201526064015b60405180910390fd5b806001600082825461020b9190610864565b9091555061030e9050565b604080518082018252600781526639b1b432b6b29960c91b602090910152517fadf23ee70a7b970c86634b281f5872e2cb62b0921a3c5dbcd7d415a80fcfb74b90610264908790879061083e565b6040518091039020036102d5578060025410156102c35760405162461bcd60e51b815260206004820152601b60248201527f536368656d65323a20696e73756666696369656e742066756e6473000000000060448201526064016101f0565b806002600082825461020b9190610864565b60405162461bcd60e51b815260206004820152600e60248201526d496e76616c696420736368656d6560901b60448201526064016101f0565b604080518082018252600481526362656e3160e01b602090910152517f55de67bb76a74685b0c117ea3a1b218f2c163bf6afb36dbb7f2242fca77f7c4390610359908590859061083e565b604051809103902003610383578060036000828254610378919061087d565b909155506104959050565b60408051808201825260048152633132b71960e11b602090910152517fd0934fb18de4de3322689370ae85e5f44f77b0b66de992b4816e6027c5c38895906103ce908590859061083e565b6040518091039020036103ed578060046000828254610378919061087d565b604080518082018252600481526362656e3360e01b602090910152517f7db10648c1d3650aa4baa4fb7dec6ad7d9dc5d932f2a637cbd186031e93a10cd90610438908590859061083e565b604051809103902003610457578060056000828254610378919061087d565b60405162461bcd60e51b8152602060048201526013602482015272496e76616c69642062656e656669636961727960681b60448201526064016101f0565b7fb56ee9015f13c7408c30d7053e10b3130e3abb58f79d6ba066189194e2dc1cf985858585856040516104cc9594939291906108b9565b60405180910390a1600054600154600254600354600454600554604080519687526020870195909552938501929092526060840152608083015260a08201527f1ce4eab4680010ce2ed3c1fce7abff2adb61ae885eadf8ad9695cee99f57c7759060c00160405180910390a15050505050565b8060005410156105915760405162461bcd60e51b815260206004820152601b60248201527f43656e7472616c3a20696e73756666696369656e742066756e6473000000000060448201526064016101f0565b806000808282546105a29190610864565b90915550506040805180820182526007815266736368656d653160c81b602090910152517f53906f18acb8c46550c5f132a718804439ff7fbae1ea434409a7772ae8890f27906105f5908590859061083e565b60405180910390200361061f578060016000828254610614919061087d565b9091555061068c9050565b604080518082018252600781526639b1b432b6b29960c91b602090910152517fadf23ee70a7b970c86634b281f5872e2cb62b0921a3c5dbcd7d415a80fcfb74b9061066d908590859061083e565b6040518091039020036102d5578060026000828254610614919061087d565b7fd2a6bc5e341f2d15cac87fdbe28600f476793f4d375a0dc9ef80db80e996c1508383836040516106bf939291906108f3565b60405180910390a1600054600154600254600354600454600554604080519687526020870195909552938501929092526060840152608083015260a08201527f1ce4eab4680010ce2ed3c1fce7abff2adb61ae885eadf8ad9695cee99f57c7759060c00160405180910390a1505050565b60008083601f84011261074257600080fd5b50813567ffffffffffffffff81111561075a57600080fd5b60208301915083602082850101111561077257600080fd5b9250929050565b60008060008060006060868803121561079157600080fd5b853567ffffffffffffffff8111156107a857600080fd5b6107b488828901610730565b909650945050602086013567ffffffffffffffff8111156107d457600080fd5b6107e088828901610730565b96999598509660400135949350505050565b60008060006040848603121561080757600080fd5b833567ffffffffffffffff81111561081e57600080fd5b61082a86828701610730565b909790965060209590950135949350505050565b8183823760009101908152919050565b634e487b7160e01b600052601160045260246000fd5b818103818111156108775761087761084e565b92915050565b808201808211156108775761087761084e565b81835281816020850137506000828201602090810191909152601f909101601f19169091010190565b6060815260006108cd606083018789610890565b82810360208401526108e0818688610890565b9150508260408301529695505050505050565b604081526000610907604083018587610890565b905082602083015294935050505056fea264697066735822122061ad83d77406009769ef102065ad8228d6d93ed7f943ceeefb481e4288de997364736f6c634300081c0033",
  "linkReferences": {},
  "deployedLinkReferences": {}
}