{
  "_format": "hh-sol-artifact-1",
  "contractName": "IntentBasedFundControl",
  "sourceName": "backend/contracts/IntentBasedFundControl.sol",
  "abi": [
    {
      "inputs": [
        {
          "internalType": "address",
          "name": "_centralGov",
          "type": "address"
        }
      ],
      "stateMutability": "nonpayable",
      "type": "constructor"
    },
    {
      "anonymous": false,
      "inputs": [
        {
          "indexed": false,
          "internalType": "uint256",
          "name": "fiatId",
          "type": "uint256"
        },
        {
          "indexed": false,
          "internalType": "uint256",
          "name": "intentId",
          "type": "uint256"
        },
        {
          "indexed": false,
          "internalType": "uint256",
          "name": "amount",
          "type": "uint256"
        },
        {
          "indexed": false,
          "internalType": "string",
          "name": "currency",
          "type": "string"
        },
        {
          "indexed": false,
          "internalType": "string",
          "name": "bankReference",
          "type": "string"
        },
        {
          "indexed": false,
          "internalType": "address",
          "name": "loggedBy",
          "type": "address"
        }
      ],
      "name": "FiatDisbursed",
      "type": "event"
    },
    {
      "anonymous": false,
      "inputs": [
        {
          "indexed": false,
          "internalType": "uint256",
          "name": "intentId",
          "type": "uint256"
        },
        {
          "indexed": false,
          "internalType": "uint256",
          "name": "parentId",
          "type": "uint256"
        },
        {
          "indexed": false,
          "internalType": "string",
          "name": "purpose",
          "type": "string"
        },
        {
          "indexed": false,
          "internalType": "uint256",
          "name": "maxAmount",
          "type": "uint256"
        },
        {
          "indexed": false,
          "internalType": "address",
          "name": "owner",
          "type": "address"
        }
      ],
      "name": "IntentCreated",
      "type": "event"
    },
    {
      "inputs": [
        {
          "internalType": "address",
          "name": "user",
          "type": "address"
        },
        {
          "internalType": "enum IntentBasedFundControl.Role",
          "name": "role",
          "type": "uint8"
        }
      ],
      "name": "assignRole",
      "outputs": [],
      "stateMutability": "nonpayable",
      "type": "function"
    },
    {
      "inputs": [],
      "name": "centralAuthority",
      "outputs": [
        {
          "internalType": "address",
          "name": "",
          "type": "address"
        }
      ],
      "stateMutability": "view",
      "type": "function"
    },
    {
      "inputs": [
        {
          "internalType": "uint256",
          "name": "parentId",
          "type": "uint256"
        },
        {
          "internalType": "string",
          "name": "purpose",
          "type": "string"
        },
        {
          "internalType": "uint256",
          "name": "maxAmount",
          "type": "uint256"
        },
        {
          "internalType": "uint256",
          "name": "validUntil",
          "type": "uint256"
        }
      ],
      "name": "createIntent",
      "outputs": [],
      "stateMutability": "nonpayable",
      "type": "function"
    },
    {
      "inputs": [],
      "name": "fiatCounter",
      "outputs": [
        {
          "internalType": "uint256",
          "name": "",
          "type": "uint256"
        }
      ],
      "stateMutability": "view",
      "type": "function"
    },
    {
      "inputs": [
        {
          "internalType": "uint256",
          "name": "",
          "type": "uint256"
        }
      ],
      "name": "fiatLogs",
      "outputs": [
        {
          "internalType": "uint256",
          "name": "id",
          "type": "uint256"
        },
        {
          "internalType": "uint256",
          "name": "intentId",
          "type": "uint256"
        },
        {
          "internalType": "uint256",
          "name": "amount",
          "type": "uint256"
        },
        {
          "internalType": "string",
          "name": "currency",
          "type": "string"
        },
        {
          "internalType": "string",
          "name": "bankReference",
          "type": "string"
        },
        {
          "internalType": "address",
          "name": "loggedBy",
          "type": "address"
        },
        {
          "internalType": "uint256",
          "name": "timestamp",
          "type": "uint256"
        }
      ],
      "stateMutability": "view",
      "type": "function"
    },
    {
      "inputs": [
        {
          "internalType": "uint256",
          "name": "fiatId",
          "type": "uint256"
        }
      ],
      "name": "getFiatLog",
      "outputs": [
        {
          "components": [
            {
              "internalType": "uint256",
              "name": "id",
              "type": "uint256"
            },
            {
              "internalType": "uint256",
              "name": "intentId",
              "type": "uint256"
            },
            {
              "internalType": "uint256",
              "name": "amount",
              "type": "uint256"
            },
            {
              "internalType": "string",
              "name": "currency",
              "type": "string"
            },
            {
              "internalType": "string",
              "name": "bankReference",
              "type": "string"
            },
            {
              "internalType": "address",
              "name": "loggedBy",
              "type": "address"
            },
            {
              "internalType": "uint256",
              "name": "timestamp",
              "type": "uint256"
            }
          ],
          "internalType": "struct IntentBasedFundControl.FiatDisbursement",
          "name": "",
          "type": "tuple"
        }
      ],
      "stateMutability": "view",
      "type": "function"
    },
    {
      "inputs": [
        {
          "internalType": "uint256",
          "name": "intentId",
          "type": "uint256"
        }
      ],
      "name": "getIntent",
      "outputs": [
        {
          "components": [
            {
              "internalType": "uint256",
              "name": "id",
              "type": "uint256"
            },
            {
              "internalType": "uint256",
              "name": "parentId",
              "type": "uint256"
            },
            {
              "internalType": "string",
              "name": "purpose",
              "type": "string"
            },
            {
              "internalType": "uint256",
              "name": "maxAmount",
              "type": "uint256"
            },
            {
              "internalType": "uint256",
              "name": "usedAmount",
              "type": "uint256"
            },
            {
              "internalType": "uint256",
              "name": "validUntil",
              "type": "uint256"
            },
            {
              "internalType": "address",
              "name": "owner",
              "type": "address"
            },
            {
              "internalType": "bool",
              "name": "exists",
              "type": "bool"
            }
          ],
          "internalType": "struct IntentBasedFundControl.Intent",
          "name": "",
          "type": "tuple"
        }
      ],
      "stateMutability": "view",
      "type": "function"
    },
    {
      "inputs": [],
      "name": "intentCounter",
      "outputs": [
        {
          "internalType": "uint256",
          "name": "",
          "type": "uint256"
        }
      ],
      "stateMutability": "view",
      "type": "function"
    },
    {
      "inputs": [
        {
          "internalType": "uint256",
          "name": "",
          "type": "uint256"
        }
      ],
      "name": "intents",
      "outputs": [
        {
          "internalType": "uint256",
          "name": "id",
          "type": "uint256"
        },
        {
          "internalType": "uint256",
          "name": "parentId",
          "type": "uint256"
        },
        {
          "internalType": "string",
          "name": "purpose",
          "type": "string"
        },
        {
          "internalType": "uint256",
          "name": "maxAmount",
          "type": "uint256"
        },
        {
          "internalType": "uint256",
          "name": "usedAmount",
          "type": "uint256"
        },
        {
          "internalType": "uint256",
          "name": "validUntil",
          "type": "uint256"
        },
        {
          "internalType": "address",
          "name": "owner",
          "type": "address"
        },
        {
          "internalType": "bool",
          "name": "exists",
          "type": "bool"
        }
      ],
      "stateMutability": "view",
      "type": "function"
    },
    {
      "inputs": [
        {
          "internalType": "uint256",
          "name": "intentId",
          "type": "uint256"
        },
        {
          "internalType": "uint256",
          "name": "amount",
          "type": "uint256"
        },
        {
          "internalType": "string",
          "name": "bankReference",
          "type": "string"
        }
      ],
      "name": "logFiatDisbursement",
      "outputs": [],
      "stateMutability": "nonpayable",
      "type": "function"
    },
    {
      "inputs": [
        {
          "internalType": "address",
          "name": "",
          "type": "address"
        }
      ],
      "name": "roles",
      "outputs": [
        {
          "internalType": "enum IntentBasedFundControl.Role",
          "name": "",
          "type": "uint8"
        }
      ],
      "stateMutability": "view",
      "type": "function"
    }
  ],
  "bytecode": "0x6080604052348015600f57600080fd5b506040516114c23803806114c2833981016040819052602c916069565b600080546001600160a01b0319166001600160a01b03831690811782558152600160208190526040909120805460ff191682800217905550506097565b600060208284031215607a57600080fd5b81516001600160a01b0381168114609057600080fd5b9392505050565b61141c806100a66000396000f3fe608060405234801561001057600080fd5b50600436106100a95760003560e01c8063916fdd7211610071578063916fdd7214610146578063993746421461016c578063c844ec3e1461019c578063e77ff2f6146101af578063f5d46091146101da578063fa93de3e146101f157600080fd5b806346a1a095146100ae578063627cd97b146100de578063630a195b146100fe5780636cb6fa3d14610113578063906e277b14610126575b600080fd5b6100c16100bc366004610da7565b6101fa565b6040516100d5989796959493929190610e06565b60405180910390f35b6100f16100ec366004610da7565b6102d3565b6040516100d59190610e5d565b61011161010c366004610efd565b6104a0565b005b610111610121366004610f81565b610538565b610139610134366004610da7565b6107ce565b6040516100d59190610fd4565b610159610154366004610da7565b610930565b6040516100d5979695949392919061104f565b61018f61017a3660046110a6565b60016020526000908152604090205460ff1681565b6040516100d591906110de565b6101116101aa366004611106565b610a87565b6000546101c2906001600160a01b031681565b6040516001600160a01b0390911681526020016100d5565b6101e360025481565b6040519081526020016100d5565b6101e360045481565b6003602052600090815260409020805460018201546002830180549293919261022290611164565b80601f016020809104026020016040519081016040528092919081815260200182805461024e90611164565b801561029b5780601f106102705761010080835404028352916020019161029b565b820191906000526020600020905b81548152906001019060200180831161027e57829003601f168201915b50505050600383015460048401546005850154600690950154939491939092506001600160a01b03811690600160a01b900460ff1688565b61031c6040518060e00160405280600081526020016000815260200160008152602001606081526020016060815260200160006001600160a01b03168152602001600081525090565b600560008381526020019081526020016000206040518060e001604052908160008201548152602001600182015481526020016002820154815260200160038201805461036890611164565b80601f016020809104026020016040519081016040528092919081815260200182805461039490611164565b80156103e15780601f106103b6576101008083540402835291602001916103e1565b820191906000526020600020905b8154815290600101906020018083116103c457829003601f168201915b505050505081526020016004820180546103fa90611164565b80601f016020809104026020016040519081016040528092919081815260200182805461042690611164565b80156104735780601f1061044857610100808354040283529160200191610473565b820191906000526020600020905b81548152906001019060200180831161045657829003601f168201915b505050918352505060058201546001600160a01b0316602082015260069091015460409091015292915050565b6000546001600160a01b031633146104f75760405162461bcd60e51b81526020600482015260156024820152744e6f742063656e7472616c20617574686f7269747960581b60448201526064015b60405180910390fd5b6001600160a01b03821660009081526001602081905260409091208054839260ff199091169083600381111561052f5761052f6110c8565b02179055505050565b60008481526003602052604090206006810154600160a01b900460ff166105925760405162461bcd60e51b815260206004820152600e60248201526d125b9d985b1a59081a5b9d195b9d60921b60448201526064016104ee565b6000546001600160a01b03163314806105b7575060068101546001600160a01b031633145b6105f45760405162461bcd60e51b815260206004820152600e60248201526d139bdd08185d5d1a1bdc9a5e995960921b60448201526064016104ee565b806003015484826004015461060991906111b4565b111561064e5760405162461bcd60e51b8152602060048201526014602482015273115e18d959591cc81a5b9d195b9d081b1a5b5a5d60621b60448201526064016104ee565b8381600401600082825461066291906111b4565b909155505060048054906000610677836111cd565b91905055506040518060e0016040528060045481526020018681526020018581526020016040518060400160405280600381526020016224a72960e91b815250815260200184848080601f0160208091040260200160405190810160405280939291908181526020018383808284376000920182905250938552505033602080850191909152426040948501526004548352600581529183902084518155918401516001830155509082015160028201556060820151600382019061073c908261124b565b5060808201516004820190610751908261124b565b5060a08201516005820180546001600160a01b0319166001600160a01b0390921691909117905560c0909101516006909101556004546040517ff3cc14a87a8d40eafdfa419b123f5b21d8f1cfe72805941c3c36e5902ea10513916107bf9188908890889088903390611333565b60405180910390a15050505050565b61082160405180610100016040528060008152602001600081526020016060815260200160008152602001600081526020016000815260200160006001600160a01b031681526020016000151581525090565b6003600083815260200190815260200160002060405180610100016040529081600082015481526020016001820154815260200160028201805461086490611164565b80601f016020809104026020016040519081016040528092919081815260200182805461089090611164565b80156108dd5780601f106108b2576101008083540402835291602001916108dd565b820191906000526020600020905b8154815290600101906020018083116108c057829003601f168201915b50505091835250506003820154602082015260048201546040820152600582015460608201526006909101546001600160a01b0381166080830152600160a01b900460ff16151560a09091015292915050565b60056020526000908152604090208054600182015460028301546003840180549394929391929161096090611164565b80601f016020809104026020016040519081016040528092919081815260200182805461098c90611164565b80156109d95780601f106109ae576101008083540402835291602001916109d9565b820191906000526020600020905b8154815290600101906020018083116109bc57829003601f168201915b5050505050908060040180546109ee90611164565b80601f0160208091040260200160405190810160405280929190818152602001828054610a1a90611164565b8015610a675780601f10610a3c57610100808354040283529160200191610a67565b820191906000526020600020905b815481529060010190602001808311610a4a57829003601f168201915b50505050600583015460069093015491926001600160a01b031691905087565b84600003610b075760013360009081526001602052604090205460ff166003811115610ab557610ab56110c8565b14610b025760405162461bcd60e51b815260206004820152601c60248201527f4f6e6c792063656e7472616c2063616e2063726561746520726f6f740000000060448201526064016104ee565b610c55565b60008581526003602052604090206006810154600160a01b900460ff16610b635760405162461bcd60e51b815260206004820152601060248201526f14185c995b9d081b9bdd08199bdd5b9960821b60448201526064016104ee565b60068101546001600160a01b03163314610bb25760405162461bcd60e51b815260206004820152601060248201526f2737ba103830b932b73a1037bbb732b960811b60448201526064016104ee565b80600401548160030154610bc69190611390565b831115610c0c5760405162461bcd60e51b8152602060048201526014602482015273115e18d959591cc81c185c995b9d081b1a5b5a5d60621b60448201526064016104ee565b8060050154821115610c535760405162461bcd60e51b815260206004820152601060248201526f496e76616c69642076616c696469747960801b60448201526064016104ee565b505b60028054906000610c65836111cd565b9190505550604051806101000160405280600254815260200186815260200185858080601f01602080910402602001604051908101604052809392919081815260200183838082843760009201829052509385525050506020808301869052604080840183905260608401869052336080850152600160a090940184905260028054845260038352928190208551815591850151938201939093559183015190820190610d12908261124b565b50606082015160038201556080820151600482015560a0820151600582015560c08201516006909101805460e0909301511515600160a01b026001600160a81b03199093166001600160a01b03909216919091179190911790556002546040517fb97b8b81d74ed90ad8bfb847db737c3f70d7fd9a4de83371328e94e013528480916107bf91889088908890889033906113a3565b600060208284031215610db957600080fd5b5035919050565b6000815180845260005b81811015610de657602081850181015186830182015201610dca565b506000602082860101526020601f19601f83011685010191505092915050565b88815287602082015261010060408201526000610e27610100830189610dc0565b606083019790975250608081019490945260a08401929092526001600160a01b031660c0830152151560e0909101529392505050565b602081528151602082015260208201516040820152604082015160608201526000606083015160e06080840152610e98610100840182610dc0565b90506080840151601f198483030160a0850152610eb58282610dc0565b60a08601516001600160a01b031660c0868101919091529095015160e090940193909352509192915050565b80356001600160a01b0381168114610ef857600080fd5b919050565b60008060408385031215610f1057600080fd5b610f1983610ee1565b9150602083013560048110610f2d57600080fd5b809150509250929050565b60008083601f840112610f4a57600080fd5b50813567ffffffffffffffff811115610f6257600080fd5b602083019150836020828501011115610f7a57600080fd5b9250929050565b60008060008060608587031215610f9757600080fd5b8435935060208501359250604085013567ffffffffffffffff811115610fbc57600080fd5b610fc887828801610f38565b95989497509550505050565b602081528151602082015260208201516040820152600060408301516101006060840152611006610120840182610dc0565b905060608401516080840152608084015160a084015260a084015160c084015260018060a01b0360c08501511660e084015260e084015115156101008401528091505092915050565b87815286602082015285604082015260e06060820152600061107460e0830187610dc0565b82810360808401526110868187610dc0565b6001600160a01b039590951660a0840152505060c0015295945050505050565b6000602082840312156110b857600080fd5b6110c182610ee1565b9392505050565b634e487b7160e01b600052602160045260246000fd5b602081016004831061110057634e487b7160e01b600052602160045260246000fd5b91905290565b60008060008060006080868803121561111e57600080fd5b85359450602086013567ffffffffffffffff81111561113c57600080fd5b61114888828901610f38565b9699909850959660408101359660609091013595509350505050565b600181811c9082168061117857607f821691505b60208210810361119857634e487b7160e01b600052602260045260246000fd5b50919050565b634e487b7160e01b600052601160045260246000fd5b808201808211156111c7576111c761119e565b92915050565b6000600182016111df576111df61119e565b5060010190565b634e487b7160e01b600052604160045260246000fd5b601f82111561124657806000526020600020601f840160051c810160208510156112235750805b601f840160051c820191505b81811015611243576000815560010161122f565b50505b505050565b815167ffffffffffffffff811115611265576112656111e6565b611279816112738454611164565b846111fc565b6020601f8211600181146112ad57600083156112955750848201515b600019600385901b1c1916600184901b178455611243565b600084815260208120601f198516915b828110156112dd57878501518255602094850194600190920191016112bd565b50848210156112fb5786840151600019600387901b60f8161c191681555b50505050600190811b01905550565b81835281816020850137506000828201602090810191909152601f909101601f19169091010190565b86815285602082015284604082015260c06060820152600360c08201526224a72960e91b60e0820152610100608082015260006113756101008301858761130a565b905060018060a01b03831660a0830152979650505050505050565b818103818111156111c7576111c761119e565b86815285602082015260a0604082015260006113c360a08301868861130a565b6060830194909452506001600160a01b039190911660809091015294935050505056fea26469706673582212200d1c9730389ee35fb3fde6cba18cc01b9be93f6fe4012119288925fff814cf5764736f6c634300081c0033",
  "linkReferences": {},
  "deployedLinkReferences": {}
}